:020000040802F0
:100000000000000041040208B91B0208091C020894
:10001000111C0208191C0208211C02080000000023
:10002000000000000000000000000000291C020881
:10003000011C0208000000007D190208C11B020813
:10004000C11B0208C11B0208C11B0208C11B020818
:10005000C11B0208C11B0208C11B0208C11B020808
:10006000C11B0208C11B0208C11B0208C11B0208F8
:10007000C11B0208C11B0208C11B0208C11B0208E8
:1004000010B5054C237833B9044B13B10448AFF34E
:1004100000800123237010BDE803002000000000CD
:1004200044AD040808B5034B1BB103490348AFF3BF
:10043000008008BD00000000EC03002044AD04086B
:1004400072B6DFF840D01048016841F470010160D5
:100450000E490F4A0F4B914204D053F8040B41F858
:10046000040BF8E74FF000000B490C4A914202D010
:1004700041F8040BFAE724F033FC25F077FD24F073
:100480001BF8FEE70000052088ED00E000000020DA
:10049000E8030020F0310508E80300209C8B0020D1
:1004A00010F8012B11F8013B012A28BF9A42F7D01E
:1004B000D01A7047034613F8012B002AFBD1181AF3
:1004C000013870470000000000000000000000003C
:1004D00001F0FF01102A2BDB10F0070F08D010F8F5
:1004E000013B013A8B422DD010F0070F42B3F6D1F9
:1004F000F0B441EA012141EA014122F007047FF012
:1005000000070023F0E80256083C85EA010586EA68
:10051000010685FA47F5A3FA87F586FA47F6A5FAA4
:1005200087F68EB9EED1F0BC01F0FF0102F00702B0
:1005300032B110F8013B013A83EA010313B1F8D15B
:100540000020704701387047002D06BF354603383C
:10055000073815F0010F07D1013015F4807F02BF75
:10056000013015F4C03F0130F0BC0138704700BFC6
:1005700081F0004102E000BF83F0004330B54FEA54
:1005800041044FEA430594EA050F08BF90EA020FC1
:100590001FBF54EA000C55EA020C7FEA645C7FEA54
:1005A000655C00F0E2804FEA5454D4EB5555B8BF77
:1005B0006D420CDD2C4480EA020281EA030382EAE8
:1005C000000083EA010180EA020281EA0303362D7A
:1005D00088BF30BD11F0004F4FEA01314FF4801C4D
:1005E0004CEA113102D0404261EB410113F0004F5F
:1005F0004FEA03334CEA133302D0524263EB430316
:1006000094EA050F00F0A780A4F10104D5F1200EB3
:100610000DDB02FA0EFC22FA05F2801841F100010E
:1006200003FA0EF2801843FA05F359410EE0A5F1E2
:1006300020050EF1200E012A03FA0EFC28BF4CF013
:10064000020C43FA05F3C01851EBE37101F00045C9
:1006500007D54FF0000EDCF1000C7EEB00006EEBD6
:100660000101B1F5801F1BD3B1F5001F0CD3490860
:100670005FEA30004FEA3C0C04F101044FEA4452B7
:1006800012F5800F80F09A80BCF1004F08BF5FEA3E
:10069000500C50F1000041EB045141EA050130BD1E
:1006A0005FEA4C0C404141EB0101013C28BFB1F530
:1006B000801FE9D291F0000F04BF01460020B1FA7B
:1006C00081F308BF2033A3F10B03B3F120020CDA4E
:1006D0000C3208DD02F1140CC2F10C0201FA0CF02C
:1006E00021FA02F10CE002F11402D8BFC2F1200C91
:1006F00001FA02F120FA0CFCDCBF41EA0C01904047
:10070000E41AA2BF01EB0451294330BD6FEA04048F
:100710001F3C1CDA0C340EDC04F11404C4F120027A
:1007200020FA04F001FA02F340EA030021FA04F38C
:1007300045EA030130BDC4F10C04C4F1200220FAE3
:1007400002F001FA04F340EA0300294630BD21FA21
:1007500004F0294630BD94F0000F83F4801306BFE7
:1007600081F480110134013D4EE77FEA645C18BFDB
:100770007FEA655C29D094EA050F08BF90EA020F72
:1007800005D054EA000C04BF1946104630BD91EA6A
:10079000030F1EBF0021002030BD5FEA545C05D16D
:1007A0004000494128BF41F0004130BD14F58004AC
:1007B0003CBF01F5801130BD01F0004545F0FE4120
:1007C00041F470014FF0000030BD7FEA645C1ABF55
:1007D000194610467FEA655C1CBF0B46024650EA8C
:1007E000013406BF52EA033591EA030F41F40021B8
:1007F00030BD00BF90F0000F04BF0021704730B53E
:100800004FF4806404F132044FF000054FF0000112
:1008100050E700BF90F0000F04BF0021704730B5D3
:100820004FF4806404F1320410F0004548BF4042A8
:100830004FF000013EE700BF42004FEAE2014FEAFD
:1008400031014FEA02701FBF12F07F4393F07F4FD8
:1008500081F06051704732F07F4208BF704793F0DB
:100860007F4F04BF41F40021704730B54FF46074EE
:1008700001F0004521F000411CE700BF50EA0102F1
:1008800008BF704730B54FF000050AE050EA01029A
:1008900008BF704730B511F0004502D5404261EB0A
:1008A00041014FF4806404F132045FEA915C3FF44B
:1008B000D8AE4FF003025FEADC0C18BF03325FEAE8
:1008C000DC0C18BF033202EBDC02C2F1200300FA99
:1008D00003FC20FA02F001FA03FE40EA0E0021FABE
:1008E00002F11444BDE600BF70B54FF0FF0C4CF4AC
:1008F000E06C1CEA11541DBF1CEA135594EA0C0F5E
:1009000095EA0C0F00F0DEF82C4481EA030621EA98
:100910004C5123EA4C5350EA013518BF52EA0335D3
:1009200041F4801143F4801338D0A0FB02CE4FF085
:100930000005E1FB02E506F00042E0FB03E54FF0B5
:100940000006E1FB03569CF0000F18BF4EF0010EAD
:10095000A4F1FF04B6F5007F64F5407404D25FEAA9
:100960004E0E6D4146EB060642EAC62141EA55515C
:100970004FEAC52040EA5E504FEACE2EB4F1FD0C9E
:1009800088BFBCF5E06F1ED8BEF1004F08BF5FEA1C
:10099000500E50F1000041EB045170BD06F00046CE
:1009A00046EA010140EA020081EA0301B4EB5C047B
:1009B000C2BFD4EB0C0541EA045170BD41F4801173
:1009C0004FF0000E013C00F3AB8014F1360FDEBF98
:1009D000002001F0004170BDC4F10004203C35DA74
:1009E0000C341BDC04F11404C4F1200500FA05F3F7
:1009F00020FA04F001FA05F240EA020001F0004298
:100A000021F0004110EBD37021FA04F642EB06010D
:100A10005EEA430E08BF20EAD37070BDC4F10C0437
:100A2000C4F1200500FA04F320FA05F001FA04F2FB
:100A300040EA020001F0004110EBD37041F10001E7
:100A40005EEA430E08BF20EAD37070BDC4F12005F2
:100A500000FA05F24EEA020E20FA04F301FA05F25A
:100A600043EA020321FA04F001F0004121FA04F202
:100A700020EA020000EBD3705EEA430E08BF20EAD2
:100A8000D37070BD94F0000F0FD101F0004640000C
:100A900041EB010111F4801F08BF013CF7D041EA8E
:100AA000060195F0000F18BF704703F00046520092
:100AB00043EB030313F4801F08BF013DF7D043EA63
:100AC0000603704794EA0C0F0CEA135518BF95EA19
:100AD0000C0F0CD050EA410618BF52EA4306D1D1A0
:100AE00081EA030101F000414FF0000070BD50EABF
:100AF000410606BF1046194652EA430619D094EA49
:100B00000C0F02D150EA013613D195EA0C0F05D132
:100B100052EA03361CBF104619460AD181EA030186
:100B200001F0004141F0FE4141F470014FF000003E
:100B300070BD41F0FE4141F4780170BD70B54FF0D9
:100B4000FF0C4CF4E06C1CEA11541DBF1CEA135559
:100B500094EA0C0F95EA0C0F00F0A7F8A4EB05043B
:100B600081EA030E52EA03354FEA013100F0888032
:100B70004FEA03334FF0805545EA131343EA1263FB
:100B80004FEA022245EA111545EA10654FEA0026B0
:100B90000EF000419D4208BF964244F1FD0404F569
:100BA000407402D25B084FEA3202B61A65EB0305C5
:100BB0005B084FEA32024FF480104FF4002CB6EB82
:100BC000020E75EB030E22BFB61A754640EA0C0002
:100BD0005B084FEA3202B6EB020E75EB030E22BF42
:100BE000B61A754640EA5C005B084FEA3202B6EB83
:100BF000020E75EB030E22BFB61A754640EA9C0042
:100C00005B084FEA3202B6EB020E75EB030E22BF11
:100C1000B61A754640EADC0055EA060E18D04FEACF
:100C2000051545EA16754FEA06164FEAC30343EA6F
:100C300052734FEAC2025FEA1C1CC0D111F4801F3C
:100C40000BD141EA00014FF000004FF0004CB6E735
:100C500011F4801F04BF01430020B4F1FD0C88BFD4
:100C6000BCF5E06F3FF6AFAEB5EB030C04BFB6EBDF
:100C7000020C5FEA500C50F1000041EB045170BDD2
:100C80000EF0004E4EEA113114EB5C04C2BFD4EBFF
:100C90000C0541EA045170BD41F480114FF0000E83
:100CA000013C90E645EA060E8DE60CEA135594EAFF
:100CB0000C0F08BF95EA0C0F3FF43BAF94EA0C0F02
:100CC0000AD150EA01347FF434AF95EA0C0F7FF477
:100CD00025AF104619462CE795EA0C0F06D152EACB
:100CE00003353FF4FDAE1046194622E750EA4106AF
:100CF00018BF52EA43067FF4C5AE50EA41047FF4C0
:100D00000DAF52EA43057FF4EBAE12E74FF0FF3C24
:100D100006E000BF4FF0010C02E000BF4FF0010CF5
:100D20004DF804CD4FEA410C7FEA6C5C4FEA430C6E
:100D300018BF7FEA6C5C1BD001B050EA410C0CBFBD
:100D400052EA430C91EA030F02BF90EA020F00201F
:100D5000704710F1000F91EA030F58BF994208BF86
:100D600090422CBFD8176FEAE37040F00100704743
:100D70004FEA410C7FEA6C5C02D150EA013C07D19A
:100D80004FEA430C7FEA6C5CD6D152EA033CD3D0E5
:100D90005DF8040B704700BF8446104662468C46DF
:100DA0001946634600E000BF01B5FFF7B7FF002812
:100DB00048BF10F1000F01BD4DF808EDFFF7F4FF3B
:100DC0000CBF012000205DF808FB00BF4DF808EDC6
:100DD000FFF7EAFF34BF012000205DF808FB00BFE9
:100DE0004DF808EDFFF7E0FF94BF012000205DF80B
:100DF00008FB00BF4DF808EDFFF7CEFF94BF0120C0
:100E000000205DF808FB00BF4DF808EDFFF7C4FFB8
:100E100034BF012000205DF808FB00BF4FEA410C01
:100E20007FEA6C5C02D150EA013C0AD14FEA430CE4
:100E30007FEA6C5C02D152EA033C02D14FF0000021
:100E400070474FF0010070474FEA410212F500125F
:100E500015D211D56FF47873B3EB625212D94FEA01
:100E6000C12343F0004343EA505311F0004F23FAEB
:100E700002F018BF404270474FF00000704750EA40
:100E8000013005D111F0004008BF6FF000407047FD
:100E90004FF00000704700BF4A0011D212F5001257
:100EA00011D20DD56FF47873B3EB62520ED44FEAC2
:100EB000C12343F0004343EA505323FA02F0704742
:100EC0004FF00000704750EA013002D14FF0FF3080
:100ED00070474FF0000070477BB972B90029BEBF60
:100EE00000204FF0004106E008BF00281CBF6FF053
:100EF00000414FF0FF3000F0EFB9ADF1080C6DE9A3
:100F000004CE002909DB002B1ADB00F083F8DDF8A2
:100F100004E0DDE9022304B07047404261EB410187
:100F2000002B1BDB00F076F8DDF804E0DDE902239E
:100F300004B0404261EB4101524263EB430370470E
:100F4000524263EB430300F065F8DDF804E0DDE9AD
:100F5000022304B0404261EB41017047524263EB0F
:100F6000430300F057F8DDF804E0DDE9022304B0A4
:100F7000524263EB4303704753B94AB9002908BF93
:100F800000281CBF4FF0FF314FF0FF3000F0A4B934
:100F9000ADF1080C6DE904CE00F03CF8DDF804E09A
:100FA000DDE9022304B0704738B50022002304466F
:100FB0000D46FFF70BFF28B920462946BDE838400B
:100FC00000F00AB8204605F1004100F005F8404263
:100FD00061EB410138BD00BFD0B50C4B0022064685
:100FE0000F46FFF781FCFFF757FF0446FFF702FCAF
:100FF000074B0022FFF778FC02460B463046394685
:10100000FFF7BAFAFFF748FF2146D0BD0000F03DD8
:101010000000F0412DE9F047089D04468C46002B66
:1010200040F083808A42174647D9B2FA82F242B131
:10103000C2F1200024FA00F09140974040EA010CF0
:1010400094404FEA1748230CBCFBF8F61FFA87FEC2
:1010500008FB16C143EA014306FB0EF1994209D988
:10106000FB1806F1FF3080F01981994240F2168199
:10107000023E3B445B1AA4B2B3FBF8F008FB10330A
:1010800044EA034400FB0EFEA64509D93C1900F1D1
:10109000FF3380F00581A64540F2028102383C44CE
:1010A00040EA0640A4EB0E0400261DB1D440002304
:1010B000C5E900433146BDE8F08702B9FFDEB2FA68
:1010C00082F2002A50D1CB1B4FEA174E1FFA87F845
:1010D0000126B3FBFEFC210C0EFB1C3341EA03414D
:1010E00008FB0CF38B4207D979180CF1FF3002D2C0
:1010F0008B4200F2E9808446C91AA3B2B1FBFEF02C
:101100000EFB101143EA014408FB00F8A04507D983
:101110003C1900F1FF3302D2A04500F2D9801846F5
:10112000A4EB080440EA0C40BFE78B4209D9002D2C
:1011300000F0B1800026C5E9000130463146BDE827
:10114000F087B3FA83F6002E4AD18B4202D3824253
:1011500000F2B880841A61EB030101208C46002D57
:10116000A8D0C5E9004CA5E7C2F1200320FA03F698
:10117000974001FA02F04FEA174ED9403043030C72
:10118000B1FBFEF61FFA87F80EFB161143EA014386
:1011900006FB08F1994204FA02F409D9FB1806F19A
:1011A000FF3C80F08D80994240F28A80023E3B44B1
:1011B0005B1A81B2B3FBFEF00EFB103341EA034130
:1011C00000FB08F38B4207D9791800F1FF3C73D27A
:1011D0008B4271D902383944CB1A40EA064678E787
:1011E000C6F1200C03FA06F422FA0CF31C4320FA91
:1011F0000CF701FA06F34FEA144E21FA0CF11F43E3
:101200003B0CB1FBFEF91FFA84F80EFB191143EAFF
:10121000014109FB08FA8A4502FA06F200FA06F3D0
:1012200008D9611809F1FF3048D28A4546D9A9F199
:1012300002092144A1EB0A01BFB2B1FBFEF00EFB93
:10124000101147EA014700FB08F8B84507D9E7192C
:1012500000F1FF312ED2B8452CD90238274440EA9C
:101260000940A7EB0807A0FB02894F45C64649463F
:101270001AD317D05DB1B3EB0E0267EB010707FA83
:101280000CFCF2404CEA0202F740C5E900270026B8
:101290003146BDE8F0872E4628460BE70646E9E6CC
:1012A0001846FDE64345E5D2B8EB020E69EB0401B2
:1012B0000138DFE70846D2E760468DE78146B9E7A7
:1012C000664675E730464AE7ACF1020C394413E74D
:1012D00002383C4424E700BF704700BFE8B170B556
:1012E00082B00D46064600F05DFA25F0B3FB002DF6
:1012F000C8BF00240EDD25F0DBFB2A1B042A0346B1
:1013000028BF0422301901A90434019324F063FE9C
:10131000A542F0DC002002B070BD4FF0FF307047F6
:1013200030B1C0E90012009AC0E9022300207047E2
:101330004FF0FF30704700BFF8B500284FD00F4680
:1013400000294CD0002A4AD00446D0E90130984206
:1013500027D0002B25DDE5681E1A964200EB050C10
:10136000A8BF1646634503DA002E1DDC3046F8BDE3
:101370000CEB0602934225DB3546002DF6DDD4E961
:101380000031E268104490FBF1F201FB12001844B6
:1013900039462A4624F01FFEA3682B44A36030463A
:1013A000F8BD00263046F8BD20689CFBF3F203FB35
:1013B00012C31844324624F00EFEA3683344A360DF
:1013C0003046F8BD2068A3EB0C052A46604424F0A3
:1013D00002FEA06828442F44A060751BCDE74FF0A3
:1013E000FF36C3E7F8B500283BD00F46C9B3C2B3F8
:1013F000856804467DB14668002E1CDD9542A8BF75
:101400001546C368721B934202DBF61A002E15DCE8
:101410002E46002E01DC2846F8BD216832461944CC
:10142000384624F0D8FDD4E902233344921BC4E9A2
:1014300002232846F8BD00252846F8BD016832463B
:101440001944384624F0C7FD201D0DC83344921BB3
:1014500093FBF0F100FB11333744C4E90223AE1BC8
:10146000D7E74FF0FF35D6E708B1806870474FF0F7
:10147000FF30704720B10023C0E90233184670479F
:101480004FF0FF30704700BF2DE9F0470026D0F83D
:1014900000A00660154662B3804610468946FFF7F5
:1014A00009F82F18BD4227D232466B1E791E13F859
:1014B000014F202C08BF1A708B42F8D100262A4613
:1014C00030460AE076B982450CDD49F82010BA4270
:1014D00012F8016C00F1010007D0114612F8013B2F
:1014E000002BEFD1BA421E46F7D1C8F80000BDE884
:1014F000F0871046BDE8F0873046F6E770B5054640
:1015000078B1FEF7D7FF0646013000F021F9044616
:1015100028B12946324625F0F7FB0023A355204683
:1015200070BD0446204670BD00283FD000293DDD37
:10153000002A3BD0F0B40024471C16E0A6F1370384
:10154000DDB23E5DA6F13003DBB2092B06D9A6F170
:101550004103052B1BD8A6F13703DBB2661002341A
:1015600043EA0513A142935519DD065DA6F1300348
:10157000DDB2092DE5D9A6F14103052BDED9A6F18F
:101580006103052B0ED8A6F15703DDB2D9E7A6F10A
:101590006103052B06D8A6F15703DBB2DEE7002076
:1015A000F0BC70474FF0FF30F0BC70474FF0FF3099
:1015B000704700BFF0B100291CDDDAB1F0B413466A
:1015C000461E02EB410716F8015F05F00F002C09DB
:1015D0009F2D8CBF5734303409288CBF57303030A2
:1015E0001C7058700233BB42EDD10020F0BC02F8F1
:1015F000110070474FF0FF30704700BF014B187863
:10160000704700BF0404002005289ABF024B53F81E
:1016100020000248704700BF3CAF040804AF040834
:10162000044A136813B91060184670474FF0FF3032
:10163000704700BF0804002010B4074C24683CB178
:1016400064682CB124681CB1A4465DF8044B604763
:1016500000205DF8044B704708040020054B1B6810
:1016600023B15B6813B15B6803B118474FF0FF30DB
:10167000704700BF08040020044B1B6823B15B685F
:1016800013B1DB6803B11847704700BF080400209E
:10169000044B1B6823B15B6813B11B6903B1184786
:1016A0000020704708040020044B1B6823B15B68CE
:1016B00013B15B6903B1184700207047080400208C
:1016C000044B1B6823B15B6813B19B6903B11847D6
:1016D0000020704708040020044B1B6823B15B689E
:1016E00013B1DB6903B118470020704708040020DC
:1016F000044B1B6823B15B6813B11B6A03B1184725
:101700000020704708040020044B1B6823B15B686D
:1017100013B15B6A03B1184700207047080400202A
:10172000044B1B6823B15B6813B19B6A03B1184774
:101730000020704708040020044B1B6823B15B683D
:1017400013B1DB6A03B1184700207047080400207A
:10175000044B1B6823B15B6813B11B6C03B11847C2
:10176000002070470804002038B1044B1B6823B1E7
:101770005B6813B15B6C03B1184770470804002025
:10178000044B1B6823B15B6813B19B6C03B1184712
:10179000002070470804002001FB00F0012100F048
:1017A000A9BB00BF054B1B6823B15B6813B1DB6CA1
:1017B00003B1184700200021704700BF0804002033
:1017C000084B1B6810B504463BB15B682BB1DB6C62
:1017D0001BB19847C4E9000110BD00200146C4E9CF
:1017E000000110BD080400200B4B1B6810B5044617
:1017F0003BB15B682BB1DB6C1BB1984702460B46D3
:1018000001E000220023D4E900018B4208BF82429C
:101810002CBF0120002010BD0804002038B50D4B5E
:101820001B6804460D4663B15B6853B1DB6C43B182
:101830009847024652190B4643F10003C4E90023BE
:1018400038BD002252194FF0000343F10003C4E9F0
:10185000002338BD0804002038B50F4B1B684FF437
:101860007A75044605FB01F563B15B6853B1DB6C27
:1018700043B19847024652190B4643F10003C4E9AD
:10188000002338BD002252194FF0000343F100033A
:10189000C4E9002338BD00BF080400200B4B1B68BF
:1018A00010B504463BB15B682BB1DB6C1BB19847AC
:1018B00002460B4601E000220023D4E900018B42DE
:1018C00008BF824234BF801A002010BD08040020E7
:1018D000054B1B6823B15B6813B11B6D03B118473F
:1018E0004FF0FF30704700BF0804002008B500F03B
:1018F0009DFA08BD72B615481549026841EA020111
:10190000016014484FF00101016013484168016013
:1019100001688A884FF0100342EA03028A80D1F8F6
:1019200000C04FF002030CF1240C0CF1040CDCF8A5
:101930000000DCF814E0DCF818200CF1200C8CF32B
:10194000098862B683F314881047000020ED00E098
:101950000000FFFFF0870020E8870020EFF31080F1
:1019600072B6704780F31088704700BF02484FF08E
:10197000805101607047000004ED00E0EFF3108C2F
:1019800072B6184A126822B12DE900509047BDE89E
:101990000050EFF309801EF0100F01D120ED108BE5
:1019A00040F804ED20E9F01F0F4D4FF010082E68AD
:1019B0003060B78827EA0807B7806868286087889A
:1019C00047EA080787800168B1E8F01F51F804EB87
:1019D0001EF0100F01D1B1EC108B81F309888CF34C
:1019E0001088704714040020E887002072B6FEE7D4
:1019F000FFF7BCBF10B5FFF7B1FF044600F0E6FAF1
:101A0000094A1168283888425060204602D0074BA6
:101A10001B881BB1BDE81040FFF7A4BFFFF7A2FF72
:101A2000BDE81040FFF7A2BFE8870020E487002050
:101A3000D0E9022370B54FF0CA31054618469C180C
:101A400024F0F1FA4FF0CC3202604FF005314FF044
:101A500004304FF006324FF0073344F8480C44F896
:101A6000441C4FF009304FF010314FF0083644F865
:101A7000402C44F83C3C4FF01132002344F8340C25
:101A8000286944F8301C4FF0013144F8386C44F8B0
:101A90002C2C6FF002064FF0023244F8283C44F838
:101AA000200C4FF0033344F81C1C0A480A4944F840
:101AB000246C44F8182C44F8143C4FF012364FF0C4
:101AC0008072A4F1480344E9046044E902122B60E7
:101AD00070BD00BFED1902088D29020810B508215C
:101AE0000446482002F01CFAE168044B0144E1601E
:101AF0001868BDE81040082202F01CB9BC8700201D
:101B0000F0B51A4D2B68B3F57A7F83B02AD3002441
:101B1000174B0094224607214FF0FF3000F09AF84F
:101B2000144A2B6814481549A2FB03239B095A1E2B
:101B300000260027B2F1807FC1E9006703600ED262
:101B40000F4B10485A601049F02280F823200725D7
:101B5000012220469C601D600A6003B0F0BD0B4866
:101B600003B0F0BD0A4803B0F0BD00BF0C02002076
:101B70003D2B0208D34D6210688900206089002047
:101B800010E000E000ED00E01C0400200204000270
:101B90000004000208B5054824F0B8FEEFF3058202
:101BA0000349044824F0B2FEFEE700BF54AF040826
:101BB0006CAF04085CAF040808B5FFF7EBFF00BF8B
:101BC00010B50D4CFFF7CAFE236801332360FFF701
:101BD000C9FEEFF30583094A0F3B52F823304BB19E
:101BE0009847FFF7BBFE2368013B2360BDE8104028
:101BF000FFF7B8BEFFF7CEFF0C040020F8830020EB
:101C000008B5FFF7C7FF00BF08B5FFF7C3FF00BF68
:101C100008B5FFF7BFFF00BF08B5FFF7BBFF00BF68
:101C200008B5FFF7B7FF00BF08B5FFF7B3FF00BF68
:101C3000054B064A9A60D968054A4FF6FF000140F5
:101C40000A43DA60704700BF00ED00E000000208C0
:101C50000007FA0583B370B51E46A0F1F003F23316
:101C600004461FD907290D461AD8FFF777FE1349F6
:101C7000621C63B2002B41F8226015DB10495E093B
:101C800004F01F042D0101220B44EDB202FA04F40A
:101C900041F8264083F80053FFF764FE002070BD32
:101CA000084870BD084870BD084B04F00F042D01B2
:101CB0002344EDB21D76EFE705487047F883002016
:101CC00000E100E00509000200090002FCEC00E070
:101CD0000109000238B5094B1B6823B10024002517
:101CE0002046294638BDFFF739FE054BD3E90045AC
:101CF000FFF738FE2046294638BD00BF0C040020FF
:101D00006089002089B292B2FFF7A4BFFFF7E2BF5B
:101D1000024B0146186802F015B800BFBC870020CE
:101D200008B501F0ABF9B0FA80F0400908BD00BF7A
:101D300008B501F087FAB0FA80F0400908BD00BF8D
:101D400008B501F0EDF9B0FA80F0400908BD00BF18
:101D500008B5134689B2024698B201F04BF9B0FAC1
:101D600080F0400908BD00BF08B500F09DFFB0FA43
:101D700080F0400908BD00BF08B501F07BF8B0FA5B
:101D800080F0400908BD00BF08B54FF0FF3100F0FA
:101D9000CFFFB0FA80F0400908BD00BF08B500F0E1
:101DA00041FFB0FA80F0400908BD00BF00F08CBED2
:101DB00008B500F0C1FBBDE8084000F011BD00BF50
:101DC00038B108B500F00CFD003818BF01204042C2
:101DD00008BD4FF0FF30704730B589B000240D9D2D
:101DE0000690029101A802A9039404920593079416
:101DF000ADF80C5000F084FC10B9019809B030BD6A
:101E0000204609B030BD00BF011E03DD024B18683B
:101E100001F07EBF00207047BC870020024B0A46BD
:101E20000146186801F08CBFBC8700200148FFF70D
:101E3000F7BB00BF88AF040810B5FFF761FE04468A
:101E400018B9FFF757FD204610BD044824F05EFD89
:101E5000034824F0F7FD204610BD00BF54AF04082E
:101E6000E8AF04081C4B10B510221A6001F030FFD7
:101E700008BBFFF7DDFE00F0F5FA044698B900F064
:101E800067FB01F08BF8044698B900F0C1FE0446E8
:101E900078B901F051F80446B8B900F06DFEBDE81C
:101EA000104000F081BC0D4824F030FD0C4824F0B7
:101EB000C9FD204610BD0446084824F027FD2146F0
:101EC000084824F023FD204610BD044824F01EFDE0
:101ED000054824F0B7FDECE7E087002054AF040884
:101EE00018B00408FCAF04082CB00408FFF73CBC91
:101EF000FFF72EBCFFF750BCFFF742BC0846FFF7C8
:101F0000F7BF00BF08461146FFF788BF08461146D5
:101F1000FFF7F0BF0846FFF7E9BF00BF08B5084B61
:101F20004FF48071186801F0F3FE064B186030B171
:101F300000F58073C0E9000008309842FAD108BD6E
:101F4000BC870020C08700200C4B1B6803EBC1023C
:101F500030B45468A24208D053F831305A6830BCCB
:101F6000C0E90032106058607047054C4FF00042E5
:101F70002568CA402A432260EEE700BFC0870020E0
:101F800010040020D0E9003110B400220D4C0B6089
:101F90005960026030F8221C2368426003EBC103E1
:101FA0005A68934202D05DF8044B704706485DF8CA
:101FB000044B03684FF0004222FA01F123EA0103C7
:101FC00003607047C087002010040020054B18688C
:101FD00030B1054B1B68B0FA80F003EBC0004068DD
:101FE000704700BF10040020C0870020074B1A680C
:101FF00002EBC002002053689A4205D05B689A4207
:1020000000F10100FAD17047704700BFC08700207F
:10201000FEE700BF2DE9F041314C2368DB681B6807
:10202000B3F1CC3F08D02F4824F070FC23682E4831
:102030001A69596A24F06AFC62681168D368994287
:102040002FD99068034499422BD8284915690878FC
:10205000526A01EB40041623658003EB40131668B7
:1020600055689468D7685E5008780B4401EB401CB3
:1020700001305D609C60DF60C0B21669556994698B
:10208000D769DF6100220A281E615D619C618CF8BE
:1020900035201AD0164B08701B68FBB1BDE8F04123
:1020A0001847104824F032FC636812481A69596ACC
:1020B00024F02CFC0B4824F029FC63680E48DA68F5
:1020C000196824F023FC6268BFE74B780A7063F05C
:1020D0007F034B70064B1B68002BDFD1BDE8F081FE
:1020E000E887002054AF040840B00408FC870020B3
:1020F0001804002068B004088CB0040830B5838848
:102100005B0783B004460D4602D4E18003B030BDC6
:1021100028300190FFF736FFA3880198E58043F04F
:1021200004032946A38003B0BDE83040FFF70CBF8D
:10213000F0B41E4CA38827684A0911F01F01194406
:1021400001F01F0307EBC30708BF02F1FF3222F0C3
:1021500078437A6843EAC163BA42836323D0303A52
:1021600005E0516B83638F42A1F1300211D0956B72
:1021700023F0784425F0784103F07846A142A4EB9F
:10218000010343EA0603ECD905F07845091B29430E
:102190009163136B5968416300F130020363F0BC33
:1021A0000A605A6070471368F4E700BFD4870020C4
:1021B0000E4B826B1968436B10B4D40E01EBC40153
:1021C0008B4209D09C6822F0784124F078420A447E
:1021D00004F0784422439A60016B196000224B603E
:1021E0005DF8044BC0E90C22704700BFD487002083
:1021F000314AF8B593881568013303F01F0305EBE6
:10220000C30593806B68AB423CD09D42A3F1300084
:1022100038D0002711E0D0E90A1423F008068680A0
:1022200021604C60C0E90A22C0E906229B0719D54B
:102230006B689D42A3F1300023D0816B838831F01D
:10224000784234D1D0E90C1421604C601C07C0E9FD
:102250000C22E0D413F4806215D023F480629B0733
:102260008280E5D48388C18843F0040383802830CA
:10227000FFF76AFE6B689D424FF00107A3F1300043
:10228000DBD187B9F8BD990409D5D0E90A4623F412
:10229000005134606660C0E90A228180C6E723F0FD
:1022A00020028280C2E7BDE8F840FFF7A3BB0139F6
:1022B0008163002FE6D0F6E7D4870020C10613D44F
:1022C00042070FD4830619D401070FD4820719D40B
:1022D000830415D50C4B0D4A10F0400F14BF18465F
:1022E000104670470A4870470A4870470A4B0B4A25
:1022F00010F0400F14BF184610467047084870474A
:102300000848704708487047CCB0040814B1040866
:10231000E8B00408E0B00408F8B004080CB1040800
:10232000F0B00408C0B0040804B10408134A38B57A
:102330001268542303FB00F01518EC682368B3F10E
:10234000CC3F11D11158201D8842034603D307E02A
:1023500004338B4203D21A68B2F1CA3FF8D0184650
:10236000AB681C44201A38BD054824F0CFFA696ACE
:10237000044824F0CBFA4FF0FF3038BDDC87002052
:1023800054AF040820B104082DE9F04F2D48DFF8C0
:10239000C8908BB024F0BAFA2B4824F0B7FA2B4837
:1023A00024F0B4FA284824F0B1FAD9F80030002B10
:1023B00043D00025DFF8A4A0DFF8A4B02E460CE03F
:1023C000D98824F0A3FA224824F03CFBD9F8003045
:1023D0000136B34205F154052FD9DAF800707C19A3
:1023E000A088C307F2D42269616AE3880991069242
:1023F0000893FFF763FF069AA3680792804610468A
:102400000693FFF793FFA26C0592E26804927F594E
:10241000029006980190DDE9072309990D4803977A
:10242000CDF8008024F072FAA3695846002BC7D17A
:102430004FF6FF7124F06AFAC5E700200BB0BDE843
:10244000F08F00BF44B1040868B40408BCB10408AC
:1024500070FA040830B20408E0870020DC8700200E
:1024600068B20408F0B52B4B2B4E196830682B4C22
:10247000542201FB022283B01146019201F048FC74
:10248000019A2060002841D0002123F0CCFD244F88
:10249000244A2368244C5260C4E900441046126068
:1024A00015461146C7E9007728330022012401E0D0
:1024B0002968486843F8182C0132102AC3E9001033
:1024C00023F8244C03604B6003F15403F0D1174B05
:1024D0000025C3E90055FFF721FD30684FF48071F6
:1024E00001F016FC044688B14FF48072294623F0AF
:1024F0009AFD0F4A04F5807314609580C4E9004486
:1025000008349C42FAD1002003B0F0BD094803B062
:10251000F0BD00BFE0870020BC870020DC870020E2
:1025200054890020F4870020CC870020E887002011
:10253000D487002000020003034B1B680BB118690D
:1025400070470248704700BFE8870020070200027A
:1025500008B5084B4FF4AB721846002123F063FD19
:102560000549064A0346064808600A2000215870BB
:10257000116008BDFC87002014040020180400200E
:10258000152002082DE9F84F002800F08D800D4637
:10259000002900F08D800B69002B00F08B800B6808
:1025A000002B00F089808A881F2A6ED8804669D067
:1025B000E86810B94FF43470E860082101F0B0FC0D
:1025C000B0F5987FE8606BD3DFF82CB1404EFFF791
:1025D000C5F9DBF804405C45824619D0DFF81C9150
:1025E0000027D4E9003213605A60C4E900777368A9
:1025F00054F81C1CD9F80000C4E900631C60746026
:1026000001F0A0FB44F81C7CDBF804405C45E8D1F9
:102610007468B4423DD0D4E90032002713605046BC
:102620005A60C4E90077FFF79DF9284654F8189CD2
:10263000FFF754FA0346A4F12800002B3ED0D5E959
:10264000022144F81C3C44F8082CAB8844F8201CB8
:102650000222296824F8242C24F8223C4FF0FF326F
:102660002B6944F8043C44F8141C44E904772762BD
:102670006261A7622946FFF7DBF9C8F80090384687
:10268000BDE8F88F134A934292D0134F3846BDE805
:10269000F88F124F5046FFF765F93846BDE8F88FBE
:1026A0000F4F3846BDE8F88F0E4F3846BDE8F88F1B
:1026B0000D4FEBE70D4FE9E70D4FE7E7FFF74EF959
:1026C0007368636026600B4F1C6082467460E1E7AC
:1026D000F487002011200208030200021102000208
:1026E00006020002070200020102000205020002C7
:1026F0000402000200020003CC870020BC870020F7
:1027000070B586B000293AD00C4606460FCC6D460F
:102710000FC594E8030085E8030069463046FFF7DB
:1027200031FF044610B1204606B070BD194B356824
:102730001B68542202FB0535FFF710F9AB88E988C6
:1027400023F0020343F004030246AB8005F12800A6
:102750001546FFF7F9FBFFF739FC0F4B0F4A1968D5
:102760002838506029B10E49098811B91268904281
:1027700009D12846FFF7F6F8204606B070BD094C8F
:10278000204606B070BD2846FFF7ECF8FFF730F999
:10279000C9E700BFDC870020F0870020E887002021
:1027A000E48700200102000230B587B00023094A07
:1027B000019302930593084D084800951F234FF499
:1027C00000746946CDE90342ADF80430FFF798FF85
:1027D00007B030BD70B2040811200208C487002081
:1027E0002DE9F84F5C4B1B68834200F0A8805B4BDF
:1027F0001B688342054600F0A580DFF884B1DBF852
:102800000030834257D9DFF87C91FFF7A7F8D9F859
:1028100000300746002B00F09D801B699D4202D1CD
:102820004F4B00221A80DFF860A1DAF80030542400
:1028300004FB0534A68816F0010340F08680F206FA
:1028400003D547490888002847D116F0040348D12A
:1028500042F208010E4231D104F1280816F0600F4F
:1028600037D1A38823F0020343F001034FF0FF3177
:10287000A3800023A364E163FFF7A8FBA3882838A3
:1028800013F01006C9F8040035D1364B36495A68A2
:10289000A3620120A080E2620868C2F80080E168BB
:1028A000C3F8048001F04EFA3846E660FFF75AF8A4
:1028B0003046BDE8F88F2D48BDE8F88FD4E90A10FE
:1028C000A04616F0600F01604860E36248F8283FB8
:1028D000C7D02046FFF76CFCC3E70B8016F004035B
:1028E000B6D004F128084046FFF74CFBA38823F03C
:1028F0000403A380B2E71E48DBF800100668DAF88C
:102900000020D4F80CC0542000FB01227168E16261
:10291000A6623846C1F80080676AC6F804800121C3
:1029200015619380C2F80CC05762A180C9F80020DD
:10293000FFF718F8FFF75CF80020BDE8F88F0D48A6
:10294000BDE8F88F0C48BDE8F88F3846FFF70AF865
:102950000A48B1E7054B61E7C4870020C88700201B
:10296000E4870020F4870020BC87002007020002D3
:10297000CC87002014020002210200020A02000299
:10298000E0870020E8870020DC870020064B10B598
:102990001C68542303FB00446369206A984720693C
:1029A000BDE81040FFF71CBFDC8700202DE9F8438D
:1029B000124B1D6805F128078146384688461646A1
:1029C000FFF7E0FAAC88D9F8002024F0040451683D
:1029D000E96244EA08039BB2AA62AB800F605760C9
:1029E000721C01D1BDE8F88343F04003AB8031464F
:1029F0002846BDE8F843FFF79BBB00BFE8870020EF
:102A000038B58388D0E90A2523EA01012A6000232A
:102A100055604A06C0E90A330446818002D48B0718
:102A200009D538BDFFF7C4FB818821F0400189B288
:102A30008B078180F5D441F00401A18004F12800C6
:102A4000E188BDE83840FFF77FBA00BF38B51A4CBF
:102A50001A4A236812681969914225D2988810F0A1
:102A6000040000D138BDFEF779FF23680546D888F9
:102A7000FFF7BCFA012819D92368D3E90A109A880C
:102A8000016042F004020024486003F12800C3E919
:102A90000A44D9889A80FFF757FA2846FEF762FF62
:102AA000FEF7A8FF204638BD054838BD2846FEF78A
:102AB00059FF044838BD00BFE8870020E0870020A8
:102AC0000702000210020002F8B5174B1D6825BB73
:102AD000164B1B8823BB0446D8B1FEF73FFF144FAB
:102AE000064638682830FFF74DFA3868838823F0A7
:102AF000040321468380FFF71BFB3A68938843F069
:102B0000200330469380FEF72DFFFEF773FF284623
:102B1000F8BDBDE8F840FFF799BF064D2846F8BD5F
:102B2000054D2846F8BD00BF0C040020E4870020B6
:102B3000E88700200D0200030E02000208B50C4BCE
:102B40000C4A1B683BB9D2E90031013341F1000165
:102B5000C2E9003108BDD2E90031013341F1000181
:102B6000C2E9003100F010F8BDE80840FFF740BBB3
:102B70001C04002060890020024B00210A221960F9
:102B8000DA807047788900200C4B0D4A186813686A
:102B90000C49834209D0D38809881060013B0B445B
:102BA0009BB29942938004D07047938809889942D8
:102BB000FAD100231360FFF749BF00BFE887002068
:102BC00078890020608900200E490F4B0F480022B1
:102BD00030B4036049600D4609600833144600E0D4
:102BE000296803F8084C486843F8042C0132142A79
:102BF000C3E9001003604B6003F11803F0D130BC4F
:102C0000704700BF80890020240400202004002099
:102C100008B5034B1B680BB9FFF7D6FF002008BDB2
:102C20002004002070B51A4B1B6882B00546E3B142
:102C3000FDB1FEF793FE174A536893421CD0D3E9C7
:102C4000002153F8046C0A60002451600122C3E99A
:102C5000003323F8064C9C819C6003F8082C2E60FE
:102C6000FEF780FE204602B070BDFFF7ADFF002DDD
:102C7000DFD1094802B070BDFEF774FE0023074A99
:102C800007490848009301F055F90448EBE700BFF5
:102C90002004002080890020021D0002031D000284
:102CA000F8C3B2A17CB20408F0B5132883B00AD9E6
:102CB000194D1A491A48002300932A4601F03AF99F
:102CC000284603B0F0BD174B00EB40001E68C7005C
:102CD00006EBC004FEF742FEF25D0346BAB1E168BE
:102CE00004F108028A4201D1658825B11846FEF731
:102CF00039FE0D4DDDE70D4BA3605968E1600A60B8
:102D00005A60F555FEF72EFE284603B0F0BDFEF7DB
:102D100029FE014DCDE700BF011D0002F8C3B2A19D
:102D20007CB2040820040020091D000280890020D4
:102D30002DE9F041132882B035D8414B00EB40001B
:102D40001D68C60005EBC0040F46FEF707FEAD5D2B
:102D50008046002D42D03B4B1D68002D43D13A4B9D
:102D600062881E685AB32369B34263D0002F5DD0D6
:102D7000364A1288002A3AD1DA88F188F4618A4208
:102D800028D83A46082104F10800FFF70FFE404614
:102D9000FEF7E8FDFEF72EFEB3885B063CD428461E
:102DA00002B0BDE8F08100230093294A29492A484E
:102DB000154601F0BFF8284602B0BDE8F081F28860
:102DC000A282012326616380FEF7CCFD284602B073
:102DD000BDE8F0811846FFF791F9D2E7FEF7C2FD92
:102DE00000952B46E1E7FEF7BDFD1C4DD7E71C48DB
:102DF0001C4D23F08BFD1C4823F024FE4046FEF7BB
:102E0000B1FD0023134900932A46134801F092F8BC
:102E1000284602B0BDE8F081FEF7A0FDB388134D4F
:102E200023F04003B380FEF79DFDEAE7FEF79AFD2D
:102E30000F4DB4E701326280FEF794FDAFE700BFAB
:102E4000200400200C040020E8870020E4870020F4
:102E5000011D0002F8C3B2A17CB20408051D0002E6
:102E600054AF0408061D000290B20408071D0002BA
:102E7000041D00022DE9F0412A4B82B000EB400412
:102E80001E680546FEF76AFD132D4FEAC408074683
:102E900006EBC4042DD816F8083053B3224A6388D1
:102EA000116833B322698A4223D1013B9BB263800C
:102EB00093BBA18AD3888B4229D1E36804F108022D
:102EC000934228D033F8222CA282A3F128000025B7
:102ED000012120616180082143F80C5CFFF790FD1F
:102EE0003846FEF73FFDFEF785FD284602B0BDE8F7
:102EF000F0813846FEF736FD00230C4A0C4900935A
:102F00000C4801F017F8094802B0BDE8F0811046FE
:102F1000FFF7F4F8D1E73846FEF724FD002002B0B1
:102F2000BDE8F08120040020E8870020011D000298
:102F3000F8C3B2A17CB20408144B10B51868144C45
:102F40004FF4DC7100F0E4FE2060E8B14FF4DC7275
:102F5000002123F068F80F4A23685260104612607F
:102F6000144611461C33002201E02168486823F80A
:102F7000122C01320A2AC3E9001003604B6003F1EE
:102F80002C03F2D1002010BD034810BDBC870020E7
:102F900090890020888900200106000238B5114B75
:102FA000114C186864604FF4A071246000F0B0FE0A
:102FB0000E4B1860A0B1002200F1080315462168ED
:102FC00023F8022C486823F8085C0132142AC3E96C
:102FD000001003604B6003F11003F0D1002038BDF6
:102FE000034838BDBC870020948900209C890020BC
:102FF00000070002F0B583B05AB3884206460D467A
:103000000AD9184C1849194800230093224600F0A9
:1030100091FF204603B0F0BD1446FEF79FFC144A12
:103020005368934219D0D3E9002133F8027C0A6037
:1030300051600122C3E9003323F8066C23F8045CD5
:1030400023F8082C2760FEF78DFC0024204603B0EF
:10305000F0BD084C204603B0F0BDFEF783FC064CE3
:10306000D0E700BF08070002F8C3B2A17CB2040891
:103070009489002002070002030700022DE9F047AF
:10308000132882B036D8214BD3F800804FEA001ABB
:1030900008EB0015FEF762FC38F80A3081463BB3B6
:1030A000EC6805F10806A64210D0002744F8107C11
:1030B000A4F128000821FFF7A3FC34F8243C43F0D6
:1030C000400324F8243CEC68B442EFD1104BAB60D1
:1030D0005A68EA600024166048465E6028F80A4094
:1030E000FEF740FCFEF786FC204602B0BDE8F08704
:1030F000FEF738FC0023074A07490093074800F011
:1031000019FF044802B0BDE8F08700BF9C89002089
:103110009489002001070002F8C3B2A17CB2040820
:103120002DE9F041132882B037D8384B1D680701CC
:1031300005EB00140E46FEF711FCED5B0746002D73
:1031400057D06388002B4BD1002E32D0304B1D68F6
:10315000002D53D12F4B1B88002B39D12E4BD3F888
:1031600000803246082104F10800C8F81840FFF733
:103170001DFC3846FEF7F6FBFEF73CFCB8F80430C1
:103180005B0612D5FEF7EAFBB8F80430234D23F0B6
:1031900040030746A8F804300CE000230093204ABF
:1031A00020492148154600F0C5FE284602B0BDE87A
:1031B000F0811E4D3846FEF7D5FB002319490093D8
:1031C0002A46194800F0B6FE284602B0BDE8F08154
:1031D0001748184D23F09AFB174823F033FCE9E712
:1031E000013B6380FEF7BEFB0025284602B0BDE828
:1031F000F081FEF7B7FB00952B46D0E70C480F4D4A
:1032000023F084FB0E4823F01DFCD3E79C890020AB
:103210000C040020E4870020E88700200707000254
:1032200001070002F8C3B2A17CB20408040700023F
:1032300054AF040806070002D4B2040805070002D0
:10324000B4B20408132824D870B5214B1D680601B8
:1032500082B005EB0014FEF781FBAE5B05460EB3B2
:103260006288A388934228D0E36804F108018B4266
:1032700011D00024A3F1280043F8104C0821FFF7D7
:10328000BFFB2846FEF76EFBFEF7B4FB204602B0FC
:1032900070BD1048704701326280FEF763FB00206A
:1032A00002B070BDFEF75EFB0A4A0B490B48009660
:1032B000334600F03FFE0748E9E7FEF753FB0023E3
:1032C000074A05490548009300F034FE0448DEE74C
:1032D0009C89002001070002F8C3B2A17CB2040857
:1032E0000807000258B110B54FF40C7204460021D3
:1032F00022F099FE04F5DA70FFF794FC10BD4FF050
:10330000FF3070472DE9F041002875D00D460029A7
:1033100072D001F00304121B394B22F00304A4F114
:1033200028029A4268D806464FF0FF31D0F8B4011F
:10333000FFF7FEFC074610B13846BDE8F08125F0E6
:103340000301A4F11802D6F8B0010860B2FA82FEB7
:10335000CEF11D03CEF11F004C60092501F10804D8
:1033600022FA03F31C28C6F8B011A3F10403C1E943
:1033700003548F604A6101F110043DDC35684FF061
:10338000010CCEF11B0E0CFA00F0284306EB0E08E0
:10339000306098F804000CFA03FC03EB8E0340EA5B
:1033A0000C0C06EB830388F804C0186AF0B10546DC
:1033B00001F1180355F808CFC1E906C5CCF804306F
:1033C0008360D6E96E03083B13440130C6E96E03FF
:1033D0004B6923F00103E2180921E4505160D6F84B
:1033E000B401FFF747FD3846BDE8F08101F1180050
:1033F000C1E906001C62E4E74FF0FF379CE700BF1D
:10340000D7FFFF7F2DE9F047002800F0C5804B1E55
:103410000B4240F0C1800446002A40F0AA800429F3
:1034200038BF04210F46D4F8B4014FF0FF3108260D
:10343000FFF77EFC002840F0AF80B9190B1DB3FAEE
:1034400083F3C3F11D020123934003310B44B3FA0C
:1034500083F5C5F11D02D340C5F11F021D2AA3F15A
:10346000040300F3B880C5F11B0162184FF0FF3070
:10347000127900FA03F31A4010D1C5F12003256830
:1034800000FA03F32B4000F03581191821EA0303F9
:10349000B3FA83F3C3F11C0163181A79531E23EAAC
:1034A0000203B3FA83F3C3EB8103283354F82300F8
:1034B000002800F09080D0E90115B1FA81FECEF12C
:1034C0001D0200F1080C21FA02F2AC45A2F104033E
:1034D000CEF11B0264D003EB820204EB8202136A7A
:1034E0009842C36804BFA3F1080EC2F820E06B60E5
:1034F0001D60D4E96E237D1E08335B1A6544794252
:103500000D40013AAC45C4E96E23A5EB000304D09D
:10351000182B00F2A68045F8040C4768FA1A921B93
:103520000F2A5AD8D4E97436D4E97021013346F110
:10353000000CC4F8D031561CD4E97623D21943F1DB
:1035400000033944C4E97623D4F8C831C4F8D4C19F
:10355000C4E97061994288BFC4F8C811436843F058
:1035600001034360D4F8B401FFF784FC2846BDE8AA
:10357000F087082A38BF0822042938BF0421033203
:103580000F46D4F8B4014FF0FF3122F00306FFF7E5
:10359000CFFB00283FF451AF00252846BDE8F08757
:1035A00003EB820508354FF0000844F825802244DB
:1035B0004FF00108157908FA03F325EA03031371A4
:1035C000002B96D123684FF0004222FA0EFE23EA28
:1035D0000E0323608DE70546C4E7B2FA82F7334451
:1035E0004360A91922F0010EC7F11D03C7F11F0C9A
:1035F00022FA03F3BCF11C0FA851A3F104034A60A3
:1036000041F80E102BDC26684FF0010EC7F11B07A6
:103610000EFA0CFC46EA0C0604EB0708266098F844
:1036200004600EFA03FE03EB870346EA0E0E04EB7A
:10363000830388F804E01E6A002E61D0334601F14E
:10364000080753F808CFC1E902C3CCF80470B7608B
:10365000D4E96E13083B1A440131C4E96E1247687D
:1036600060E7416845F8080CA5F1080EAEEB0007CD
:10367000C91BB7FA87F2C2F11D0321F0010AC2F19A
:103680001F0827FA03F9B8F11C0F45F8041CA9F12B
:1036900004034EF80AE0476038DC21684FF0010966
:1036A000C2F11B0209FA08F804EB020A41EA080118
:1036B00021609AF8041009FA03F903EB820304EB82
:1036C000830341EA09098AF804901A6AA2B11346F1
:1036D00053F8081FC0E90213C1F804C0C2F808C0BB
:1036E000D4E96E23083B1F440132C4E96E277046BB
:1036F000082312E71D4635E7C0E902CC1862EFE760
:1037000001F10806C1E902661962A1E770460823C3
:1037100003E700BF0A460421FFF774BE002800F04B
:103720000D81002900F005812DE9F04151F8045C7C
:103730000446E80748BFA1F10805D4F8B4014FF0EA
:10374000FF31FFF7F5FA002840F0F580D5E900C118
:1037500021F00101D4E978676960D4E970235B1A2C
:10376000013AC4E97023D4E97A23DCF804E0013695
:1037700047F10007521843F100031EF0010FC4E99E
:103780007867C4E97A2329443ED04B68DA076AD5C2
:1037900068680D60B0FA80F2C2F11D03C2F11F0625
:1037A00020FA03F31C2EA3F1040326DC2168012771
:1037B000C2F11B0207FA06F604EB020C0E43266068
:1037C0009CF804109F4003EB820304EB83030F4338
:1037D0008CF804701A6A002A72D0134605F10801A9
:1037E00053F8086FC5E9026371609160D4E96E23F4
:1037F000083B03440132C4E96E23D4F8B401FFF757
:1038000039FB0020BDE8F0816646BEFA8EF856F816
:10381000087FC8F11D032EFA03F3B742A3F1040297
:10382000C8F11B0352D002EB830304EB83031A6A33
:103830009445DCF80C2004BFA2F1080018627A60FD
:103840001760D4E96E230833A3EB0E03013AC4E9F1
:103850006E236A68DCF804301344CCF804304B68FB
:10386000DA07654694D40E46B3FA83F756F808CFC4
:10387000C7F11D0223FA02F2B445A2F10402C7F116
:103880001B003BD002EB800204EB8202106A8142F3
:10389000C86804BFA0F108061662CCF80400C0F89E
:1038A00000C0D4E96E020832D31A0138C4E96E03AD
:1038B0004B686868184420F001016860294468E793
:1038C00005F10802C5E902221D628FE702EB8306BB
:1038D0000836234444F826000126187906FA02F235
:1038E00020EA02021A71002AABD123684FF000428D
:1038F00022FA08F823EA08032360A2E702EB800615
:1039000008364FF0000C44F826C020444FF0010C5C
:1039100006790CFA02F226EA02020271002AC0D1EC
:1039200022684FF0004020FA07F722EA07022260DF
:10393000B7E7084670474FF0FF3063E74FF0FF30BE
:10394000704700BF002900F0BA802DE9F047144607
:10395000002A00F0AF80072A51F8043C88BF0732E4
:103960000D468CBF22F007020822D9074CBFA5F1F3
:10397000080898460646D8F8047027F0010747441F
:10398000A7EB05094A4500F28880A9EB020ABAF1C3
:103990000F0F03D82C462046BDE8F087A2EB09099B
:1039A0004FF0FF3147F80980D0F8B401FFF7C0F9B4
:1039B00007EB09010028EDD1D8F804204A44C8F8E3
:1039C00004207B68DA073AD5C1F804A0BAFA8AF273
:1039D000C2F11D03C2F11F042AFA03F31C2C396043
:1039E000A3F1040326DC30680127C2F11B0207FAA9
:1039F00004F406EB020C044334609CF804009F407E
:103A000003EB820306EB830307438CF804701A6A06
:103A1000002A57D0134601F1080053F8084FC1E9B6
:103A2000024360609060D6E96E23083B5344013244
:103A3000C6E96E23D6F8B401FFF71CFAAAE753448F
:103A40004B607C68BC46B4FA84F85CF808EFC8F1B7
:103A50001D0324FA03F3E645A3F10403C8F11B0296
:103A600036D003EB820306EB83031A6A9742FA68A7
:103A700004BFA2F108001862CEF80420C2F800E0EA
:103A8000D6E96E2308331B1B013AC6E96E23D1F831
:103A900004A02AF001070F4498E70421FFF7B2FCC5
:103AA000044600283FF477AF29464A4622F093FAAD
:103AB00029463046FFF732FE2046BDE8F087042154
:103AC000FFF7A0BC01F10802C1E902221962AAE7CE
:103AD00003EB82070837324446F8270001271079A4
:103AE00007FA03F320EA03031371002BC8D13368EC
:103AF0004FF0004222FA08F823EA08033360BFE7D8
:103B00002DE9F04F054683B000296AD1D0F8B40101
:103B10004FF0FF31FFF70CF928B103B0BDE8F08F8B
:103B20003668002E72D14B4822F0F0FE4A4822F04F
:103B3000EDFE4A4822F0EAFE494822F0E7FED5E9C8
:103B40006E21484822F0E2FED5E97021464822F075
:103B5000DDFE464822F0DAFED5E97801D5E97A2380
:103B6000CDE90001424822F0D1FED5E97401D5E942
:103B70007623CDE900013F4822F0C8FED5F8C811F0
:103B80003D4822F0C3FE2968F9B1B1FA81F1C1F1D3
:103B90001B01182923DC6B181B79B3FA83F3C3F1DB
:103BA0001F03032B1BDC03EB8103083355F82300B1
:103BB000C36841680830834207D053F8042C5B681F
:103BC000914238BF11468342F7D12C4822F09EFE25
:103BD000D5F8B40103B0BDE8F04FFFF74BB90021B1
:103BE000F3E72748D5F8B06122F090FED5F8B4018C
:103BF0004FF0FF31FFF79CF800288ED1002E92D0B5
:103C0000DFF884B0DFF884A0DFF88490DFF88480E8
:103C10001C4F584622F07AFE504622F077FE06F1FD
:103C2000080406E06368092B3FF47AAF23F0010330
:103C30001C44626812F0010F0CBF4B46434622F051
:103C400001022146384622F061FE2368002BE9D1AB
:103C50006368EBE728B3040838B3040860B30408CA
:103C600088B3040894B30408A8B30408BCB30408D8
:103C7000CCB30408E4B30408FCB304087CB404081F
:103C80000CB304086CB4040828B4040848B404084D
:103C9000F8B2040800B3040838B530F0030507D0C3
:103CA00000F00300081A20F00304B4F50C7F01D8DB
:103CB000012038BD2846FFF715FBA4F50C7205F569
:103CC0000C712846FFF71EFB003818BF012038BDD5
:103CD000F8B50D4CD4E900512846491BFFF7DCFF2D
:103CE000074670B9094EE26835600AB909E03568DF
:103CF00054F8081F2846521AFFF704FBE268002A0E
:103D0000F5D13846F8BD00BF58250508BC8700200E
:103D100038B50C4659B1054610B100F09BF800B11A
:103D200038BD21462846BDE83840FFF7F3BC0846B9
:103D300038BD00BF0B4611461A46FFF763BB00BFF4
:103D4000FFF700BE98B138B50D4671B1044600F0DA
:103D5000B9F8012801D1002038BD29462046FFF7D7
:103D6000DDFC003818BF012038BD012038BD01201E
:103D7000704700BF00F5F870704700BF20B10039F0
:103D800018BF0121FFF7BCBE034B0039186818BFEC
:103D90000121FFF7B5BE00BFBC87002003681F33B9
:103DA0005A091ED0031D30B403EB820200241D46C5
:103DB00053F8041B481C0ED0CA430023520818466F
:103DC00003F10103FAD1012383400B4300EB4410BC
:103DD0002B6030BC70479A4204F10104E7D10846D9
:103DE000F7E74FF0FF30704710B504468068FFF7E3
:103DF000D5FF031EAABFD4E90020002002FB030068
:103E000010BD00BF0246D0E90003C91A30B4B1FBAF
:103E1000F0F400FB1410C8B993681A68944213D2E6
:103E2000620903EB820104F01F044868E04010F0CF
:103E3000010009D00433012553F8221005FA04F4D7
:103E400021EA040143F8221030BC7047002030BC46
:103E5000704700BF2DE9F0410C46FFF78BFF802C27
:103E600008D8054600231E010133AA59A24205D2F3
:103E7000042BF8D100242046BDE8F081AF19FDF7EE
:103E80006DFDD7E901329A42804617D2FC6884B1B1
:103E90002046FFF7A9FF044650B1AB5983700023B9
:103EA000C370BB684DF6DE62013302800434BB6030
:103EB0004046FDF757FD2046BDE8F081FDF752FD75
:103EC0000024D8E770B50D46FFF754FF35F8042CF1
:103ED0004DF6DE639A4209D115F8021C00231C013D
:103EE00001330259914204D9042BF8D10025284608
:103EF00070BD0444FDF732FD291F0646E068FFF758
:103F000081FF012804BFA36803F1FF33054608BF02
:103F1000A360304618BF0025FDF724FDE7E700BF8A
:103F20004B1E0344494283428CBF01EA0300084010
:103F3000704700BF30B5054C246883B014B1069DAE
:103F40000095A047002003B030BD00BFA08900202D
:103F50002DE9F0412E4A2F4B2F4E30493048314D3C
:103F600084B0CDE90032304B304A22F0CFFC3368C8
:103F7000986821F0F7FD6B68002B21DD2C4FDFF8EE
:103F8000B48000242B6803EB041221019089595856
:103F90005368B2F80EE0019300F00100D2F808C0B7
:103FA000CDF800C057F820207346404622F0AEFC02
:103FB0003368986821F0D6FD6B680134A342E1DCD8
:103FC000EB68002B1FDD1A4FDFF86C800024AA6815
:103FD00002EB04132101586852589989029098689D
:103FE000019001F00101D889009057F82130404636
:103FF000214622F08BFC3368986821F0B3FDEB6812
:104000000134A342E3DC002004B0BDE8F08100BF2E
:10401000C4B40408D0B404081002002020F204083C
:10402000A8B40408040600209CB40408A0B4040842
:1040300090B50408D8B40408F4B4040808B5002204
:104040000121054822F062FC044B1B68986821F0AE
:1040500089FD002008BD00BF18B50408100200202B
:104060002DE9F84FDFF898A0244EDAF804900024E8
:10407000A1450546A6F840401ADDDAF800B027460B
:10408000230128465BF80380FCF714FA2946024610
:104090004046013422F026FE20B946F82780013739
:1040A000A6F840704C4503D0B6F840700F2FE7D902
:1040B000DAF80C90B9F1000F1DDDDAF808A0002441
:1040C00010E05AF80380FCF7F5F92946024640460D
:1040D00022F008FE20B946F827800137A6F8407084
:1040E0004C4508D0B6F840700F2F4FEA041328460D
:1040F00004F10104E5D90148BDE8F88F1406002059
:10410000040600202DE9F04792B00246102302A9D0
:1041100068460093FDF7B8F9DDF80090B9F1000F9B
:1041200059D0DFF814A1029FDAF80480B8F1000F2B
:104130003CDDDAF80040002501E0454536D0216835
:104140003846FCF7ADF92646013510340028F4D185
:10415000B389002B56D0B9F1030F05D1324903982A
:10416000FCF79EF900283ED0B568304F304829460C
:1041700022F0CCFB3B68986821F0F4FCF3897BB11A
:10418000DFF8B880002415F8011B404622F0BEFB82
:104190003B68986821F0E6FCF3890134A342F2DC25
:1041A0004FF0FF39484612B0BDE8F087DAF80C80CE
:1041B000B8F1000F2DDDDAF80840002501E0454593
:1041C00027D021683846FCF76BF9264601351034B4
:1041D0000028F4D1BCE749464846FFF7B9FE4846F7
:1041E00012B0BDE8F08702460146049823F084FC33
:1041F000F289034601A9B06801934FF0FF3921F01D
:10420000EAFECFE74846B36802A998474FF0FF3966
:10421000C8E73946074822F079FB044B1B689868C9
:1042200021F0A0FCBCE700BF34B504081002002058
:1042300038B5040854B50408040600204CB5040839
:10424000044B054A9B1A03D004491B09C1E900230A
:1042500000207047F0AD040860AD0408040600209B
:1042600070B5051E0BDD064E0024202022F066FBF3
:1042700033680134986821F075FCA542F5D170BD12
:104280001002002070B50446FCF714F958B1064E30
:10429000251814F8010B22F051FB3368986821F0BF
:1042A00061FCAC42F5D170BD1002002070B5051E56
:1042B0000BDD064E0024082022F040FB3368013459
:1042C000986821F04FFCA542F5D170BD1002002086
:1042D0002DE9F84390F8406006440446304689468C
:1042E000FCF7E8F880464846FCF7E4F807464846FD
:1042F000FFF7C8FF3046FFF7C5FF4046FFF7D6FF80
:1043000094F840303B4484F840302046FCF7D2F823
:104310003B180021E218E154551EB8F1000F13D0EC
:104320006FEA080623181644784213F8014D05F881
:104330000149B542F9D1A0EB0800104449463A467C
:10434000BDE8F84322F0E0BCC7F10102A8184946D5
:104350003A46BDE8F84322F0D7BC00BF08B50720B5
:1043600022F0ECFA034B1B689868BDE8084021F086
:10437000F9BB00BF1002002070B5054600F14104F2
:1043800000F24116214628464034FCF789F8A0B1D6
:10439000B442F7D195F84141013405EB8413013360
:1043A00018464022002121F03EFE04F00304402282
:1043B000294622F0A9FC85F8414170BD2DE9F0475E
:1043C000D2B04FF4A172002101A821F02CFEAB481D
:1043D000DFF8C482AA4FAB4EAB4DFFF753FFAB489B
:1043E000FFF750FF4FF000094C4621F0DFFC431C63
:1043F000012B0090F9D9FF28F7D014F0FF0F00F03F
:10440000D08014F47F4F00F0CF8044EA004A49EA9C
:1044100000441B2C78D8072C4BD9A4F10803132B8C
:1044200047D8DFE803F018520C46460C464646468D
:104430004646464646464646460AA146D5E79DF8C4
:104440000430002B40F0F68090484FF00009FFF751
:1044500019FF4C46C9E79DF84440002C4ED001ABF3
:104460001C442046FCF726F88146082022F066FA14
:10447000D8F80030986821F075FB2046FFF702FF5E
:10448000202022F05BFAD8F80030986821F06AFB0F
:1044900009F10100FFF70AFF2146601E22F01AFC15
:1044A0009DF844304FF00009013B8DF844304C46F4
:1044B0009BE79DF844303E2B20D8694601A84FF079
:1044C0000009FFF705FF4C468FE79DF84430ABB17C
:1044D00001A84FF0000910F803A000F80390FFF7BF
:1044E000BFFDB0F840209DF8443001A9012A01F831
:1044F00003A0044600F00D8100F2D2804FF00009C5
:10450000FFF72CFF4C4670E7BC4250D00ED9B442A6
:10451000CFD19DF84430002BF0D0013B0024012086
:104520008DF84430A146FFF7C1FE5EE7AC4266D08D
:10453000574B9C42BDD101A8FBF7BCFF9DF844300E
:1045400083428146C0F2938040B1DFF850A100243D
:1045500001345046FFF796FEA145F9DC40220021C8
:1045600001A821F060FD9DF84541053401AB04F040
:10457000030403EB841141314FF000094022184637
:104580008DF8449022F0C0FB01A88DF84541FBF75F
:1045900091FF034601A88DF844304C46FFF772FEA8
:1045A00023E7A246044634E744EA00241DE701A8B5
:1045B000FBF780FF9DF8443083429FDA01335FFAB6
:1045C0008AF08DF8443022F0B9F9D8F800309868B4
:1045D00021F0C8FACAF3072022F0B0F9D8F8003069
:1045E000986821F0BFFACAF3074022F0A7F9D8F87B
:1045F00000300024986821F0B5FAA146F5E601A83C
:10460000FBF758FF9DF844308342814629DB40B1D7
:10461000DFF888A0002401345046FFF733FEA1459F
:10462000F9DC4022002101A821F0FDFC9DF8454164
:1046300003349BE7174822F069F9D8F800309868EE
:1046400021F090FA01A8FFF797FE01A8FFF75AFDA5
:104650004022002101A821F0E6FC00238DF844301F
:10466000F2E6C01AFFF7FCFD8DF84490D0E7C01ABF
:10467000FFF7F6FD8DF8449067E700BF98B5040892
:104680001B0043001B0044001B004100B4B504089C
:104690001B00420068B4040810020020C0B50408E2
:1046A0001F4822F033F9D8F80030986821F05AFA00
:1046B000B4F840309BB1A4F1040A5AF8040FFFF794
:1046C000E1FD092022F03AF9D8F80030986821F08D
:1046D00049FAB4F8403009F101094B45EDDC1048C6
:1046E00022F014F9D8F80030986821F03BFA0D4810
:1046F000FFF7C8FD01A8FFF7C5FD01A8FBF7DAFE2B
:104700009DF844304FF00009C01AFFF7CFFD4C462A
:104710006BE6016801A81944FFF7DAFD4C4664E630
:1047200068B40408B4B5040800B583B0FFF788FD89
:1047300000220A23CDE90023044905484FF4106301
:10474000FCF77AFF03B05DF804FB00BFBD4302082D
:10475000C4B5040808B5FDF717FE002008BD00BF6A
:1047600008B501210020FFF709FB002008BD00BFAC
:1047700010B5FDF7ADF8FCF741FF012802D94FF065
:10478000FF3010BD0120FCF73FFF0446FDF70AF89B
:1047900021460246054B064822F0B8F8054B1B6837
:1047A000986821F0DFF94FF0FF3010BD14B604080F
:1047B000D4B50408100200202DE9D003104CA168E4
:1047C0000B46D0E9066783B1D3E90689B04579EB9A
:1047D00007020ADA1A6A72B1D2E90689B04579EBA2
:1047E000070C08DA1346002BEED101B10162A0607C
:1047F000BDE8D00370470262BDE8D003186270477D
:10480000000000202DE9F84F3A4D4FF0FF384FF0EF
:1048100000094FF0FF3A6FF0004B09E0FCF7C2FFD0
:10482000034668681E460F46FCF73EFF012848D045
:104830002B69002B42D141462868FCF765FF686868
:10484000FCF732FF0128E9D1AC6844B92BE0C4E998
:1048500006ABA3602046FFF7AFFFAC681CB3236A2A
:10486000C4F82090AB60FCF79DFFD4E9062390428A
:1048700071EB030306460F4619DBE3680BB12069B1
:104880009847A36813F0010F23F00203DFD1636898
:10489000F61847F10007C4E906672046FFF78CFFCA
:1048A000AC68002CDBD16868FCF70AFFB6E720464D
:1048B000FFF782FF6868FCF703FFAFE70020BDE861
:1048C000F88FAB6863B1D3E906235B4508BF524557
:1048D00006D0964277EB030108DAA2EB060801E066
:1048E0004FF0FF386868FCF7EBFEA1E74FF00008D7
:1048F000F8E700BF000000202DE9F04F444D89B0DB
:104900006868FCF7D1FE012803D0002009B0BDE89B
:10491000F08F0446FCF772FE012845D9AC68002CE4
:1049200037D0DFF82491DFF824813A4F01E0246A80
:104930007CB3FCF763FE0128F9D80120FCF764FE84
:104940000646FCF72FFF0246D4E901A02368A169BF
:10495000D4E903BC002B08BF4B4610F0020F14BF74
:10496000C646BE4610F0010F14BF404638468DE8DB
:10497000081CCDE904E0284B06912848314621F077
:10498000C5FF274B1B68986821F0ECF8246A002CBF
:10499000CFD1FCF733FE012826D96868FCF790FEDA
:1049A000002009B0BDE8F08F2046FCF72DFE04463C
:1049B000FCF7F8FE1B4B06931B491C4B0591049317
:1049C0001B491C4B039102931B491C4B019102464E
:1049D00000932146104B1A4821F098FF104B1B689A
:1049E000986821F0BFF899E70120FCF70DFE044616
:1049F000FCF7D8FE0023024600932146064B1148DF
:104A000021F084FF064B1B68986821F0ABF8C4E7DF
:104A10000000002030B6040814B70408A4B6040847
:104A20001002002068B6040874B604087CB60408B6
:104A300084B6040888B6040890B6040898B604083A
:104A400034B60408D8B6040824B604082CB6040802
:104A500030B5164D83B0002228460121FCF748FEF0
:104A600008B3281DFCF714FEB0B100240A23CDE9D9
:104A700000430F490F4822464FF40063FCF7DCFD6A
:104A8000E86018B12C61204603B030BD6868FCF7BF
:104A900023FE4FF0FF336B602868FCF74DFE4FF0AC
:104AA000FF302860F0E74FF0FF30EDE70000002016
:104AB0000548020800B70408F8B50D460A31074654
:104AC00088001646FCF744FE044668B1002300F156
:104AD0002802C0E900758661C36003614361C36158
:104AE0000362436282600EB92046F8BD1A46294629
:104AF0001C30FCF7FDFD90B12A46294604F1200048
:104B0000FCF7F6FD40B104F12400FCF7C1FD0028DC
:104B1000EAD1206AFCF710FEE069FCF70DFE2046A2
:104B20000024FCF721FE2046F8BD00BF00283ED03F
:104B3000F8B50D46002937D00446806980B963690D
:104B40006268934230DAD4E902177E1C41F827509C
:104B500096FBF2F1013302FB11626361E260F8BD82
:104B6000206A1146FCF7D0FDF0B1606AFCF79CFDAD
:104B7000D0B1626961688A4213DAD4E9020340F86D
:104B800023500133013293FBF1F001FB10336261DA
:104B9000E360606AFCF794FDE069FCF7C1FD00206A
:104BA000F8BD606AFCF78CFD4FF0FF30F8BD4FF0A8
:104BB000FF307047002840D070B50D46002939D02D
:104BC0000446806988B96269002A33DDD4E901614D
:104BD000236951F8231029600133013A93FBF6F160
:104BE00006FB1133C4E9043270BDE0691146FCF7DD
:104BF0008BFDF8B1606AFCF757FDD8B16269002AF5
:104C000015DDD4E90101236951F82310296001332E
:104C1000013A93FBF0F100FB1133C4E90432606AFE
:104C2000FCF74EFD206AFCF77BFD002070BD606A3A
:104C3000FCF746FD4FF0FF3070BD4FF0FF3070477E
:104C4000B0B1836910B5044623B92046FCF78CFD4A
:104C5000002010BDC069FCF76FFD206AFCF76CFDF9
:104C6000606AFCF739FD2046FCF77EFD002010BD90
:104C70004FF0FF30704700BF38B5074B5C684CB150
:104C8000054601E024682CB1A1682846FBF708FC22
:104C90000028F7D1204638BD580600202DE9F04302
:104CA0003F4D89B02868FCF7FFFC18B9002009B017
:104CB000BDE8F083FCF7A2FC01283BD9AB6833B90F
:104CC0002868FCF7FDFC002009B0BDE8F083FCF784
:104CD00095FC012843D96C68002CF1D0DFF8C8900E
:104CE000DFF8EC802F4F02E02468002CE8D0FCF7BE
:104CF00085FC0128F8D80120FCF786FC0646FCF765
:104D000051FDA36A0693636A0593236A0493E369DA
:104D1000039363690293E3680193A36800930246D7
:104D20004B463146404621F0F1FD3B68986820F043
:104D300019FFD9E70120FCF767FC0446FCF732FDB8
:104D4000194BAE680093024621460196174821F0A0
:104D5000DDFD144B1B68986820F004FFAEE70120CE
:104D6000FCF752FC0446FCF71DFD114B069311495C
:104D7000114B059104931149114B03910293114971
:104D8000114B0191024600932146074B0F4821F039
:104D9000BDFD044B1B68986820F0E4FE9BE700BF54
:104DA00058060020100200200CB8040824B704089C
:104DB00084B704088CB7040894B70408A0B70408A3
:104DC000ACB70408B4B70408C0B704084CB704086B
:104DD000CCB70408036870B56BB34368054653B39A
:104DE0002C20FCF7B5FC044628B32C22002121F02E
:104DF0001AF9D5E90023114EA260AA682361EB6875
:104E000030686260E360FCF74FFC88B12868FFF708
:104E100033FF50B97368236030687460FCF750FC4E
:104E2000B3680133B360204670BD3068FCF748FCBE
:104E30002046FCF799FC0024204670BD580600204F
:104E400070B50A48FCF724FC064660B1084D094CD1
:104E50002D1B2D0907D004EB051520461034FFF754
:104E6000B9FFAC42F9D1304670BD00BF58060020F2
:104E700000AE0408F0AD0408F8B5002848D0054697
:104E800018200E46FCF764FC0446002840D000239E
:104E9000224F036043608360C360036143613868ED
:104EA000FCF702FC002830D02846FFF7E5FE054657
:104EB00040B3C3681B0501D583691BBB6B6913F045
:104EC000010F2B6909D19A693AB168689047B8B166
:104ED000D5E9043242F001026A611B681BB16868BF
:104EE00031469847B8B16B6AAA69386801336B627A
:104EF0002260AC61C4E90156FCF7E2FB2046F8BD34
:104F00000123AB623868FCF7DBFB2046FCF72CFC86
:104F100000242046F8BD0223AB62F3E758060020C8
:104F2000E0B170B5144682B092B1A3B18468E407D1
:104F300011D44568286960B144684CB1069E686820
:104F40000096A047002804DD2B6A03442B6200E092
:104F5000204602B070BD002002B070BD704700BF97
:104F6000D0B170B5144682B09AB1B3B1846814F070
:104F700003040ED04568286960B184684CB1069E70
:104F800068680096A047002804DDEB690344EB61E4
:104F900000E0204602B070BD7047184602B070BDF8
:104FA0002DE9F04103461A4E1A480C46194615469B
:104FB00021F0ACFC3368986820F0D4FD002D1EDD94
:104FC000013CDFF85C80144F254408E0084621F0DE
:104FD000B5FC3368986820F0C5FDA5420FD014F8E1
:104FE000011F18F8013013F0970F3846EED121F069
:104FF0008DFC3368986820F0B5FDA542EFD10748D5
:1050000021F020FD3368BDE8F041986820F0AABD8A
:105010001002002020B8040830B8040870FA040810
:10502000C12B0508F8B50346114E12480C46194627
:10503000154621F06BFC3368986820F093FD002D35
:105040000DDD013C0C4F254414F8011F384621F0BA
:105050005DFC3368986820F085FDAC42F4D10748C8
:1050600021F0F0FC33689868BDE8F84020F07ABD84
:105070001002002020B804084CB5040870FA040897
:10508000032838B555D18D680C4628464449FBF7AE
:1050900007FAE0B143492846FBF702FA28B3424930
:1050A0002846FBF7FDF9022300285DD162681178DC
:1050B000722911D1507878280ED1907860B93B4987
:1050C00042F6A4028C5C63F301048C5438BD626820
:1050D000117872290346EDD0742908D0FCF78EFAB6
:1050E000012812D96FF0020038BD0123DEE75178A4
:1050F0007829F3D190780028F0D12C4942F6A40207
:105100008C5C63F383048C5438BD0120FCF77CFA7B
:105110000446FCF747FB21460246254B254821F073
:10512000F5FB254B1B68986820F01CFD6FF0020012
:1051300038BDFCF763FA012802D94FF0FF3038BDC3
:105140000120FCF761FA0446FCF72CFB21460246DD
:10515000174B1A4821F0DAFB174B1B68986820F0B0
:1051600001FD4FF0FF3038BDFCF748FA012802D9A5
:105170006FF0010038BD0120FCF746FA0446FCF749
:1051800011FB214602460A4B0D4821F0BFFB0A4B9A
:105190001B68986820F0E6FC6FF0010038BD00BF86
:1051A00058B8040860B8040868B804086406002009
:1051B0002CBA04088CB804081002002038B804087F
:1051C0006CB804082DE9F047134F80463C4607F1C0
:1051D000A40A0025D4F830905146B9F1000F06D04A
:1051E000A06B20B1E26B20F0E8FE064648B1013525
:1051F000062D04F11404EDD14FF0FF363046BDE822
:10520000F08705EB850507EB85050449686B424689
:10521000C8473046BDE8F087640600200807002034
:1052200038B5154C0546A06AFCF73EFA00B3216973
:10523000C9B104F1A40021F08EFDA0B16069A8B14C
:10524000A269954228BF15462A4604F1A40120F020
:10525000C2FEE561206AFCF763FA0025A06AFCF74C
:105260002FFA284638BD4FF0FF35F7E7E561F1E743
:105270004FF0FF35F5E700BF6406002070B5134E10
:1052800082B04FF0FF330246009305464FF420539F
:1052900070680021FFF744FE041E02DC204602B0C5
:1052A00070BD42F6A403F35C03F00303012B07D0A7
:1052B000022BF3D1064829462246FFF7B3FEEDE75D
:1052C000034829462246FFF76BFEE7E76406002005
:1052D000ACB80408F0B5324E83B030680221FFF755
:1052E000CBFD7060002841D02E4F002406F1A405AC
:1052F00008E064B32819FFF7C1FF0444002C1CDC4C
:105300007368BBB13B68012BF3D04FF420520021EE
:10531000284620F088FE2846FFF7B0FF041EEFDD88
:10532000FFF750FF0028EBD02046FFF779FF7368A6
:10533000002BE7D1002003B0F0BD2046FFF742FF6D
:1053400070B97368002BF5D03B68012BDDD14FF4A9
:1053500020520021284620F066FE00242846CAE795
:105360002046FFF75DFF0028CAD1EAE7FCF746F9BF
:105370000128DFD80120FCF747F90446FCF712FAB0
:105380003168094B0191024600932146074821F0FC
:10539000BDFA074B1B68986820F0E4FBCAE700BF22
:1053A000640600200C2F002004BA0408B4B80408D6
:1053B0001002002070B5164E82B00B4600920446D3
:1053C00002460D4670680021FFF7CAFD00281BDD6C
:1053D00042F6A403F25CC2F38102012A04D0022A3D
:1053E0000AD0002002B070BD0A482A462146FFF7C5
:1053F000D7FD002002B070BD06482A462146FFF7BF
:1054000011FE002002B070BD4FF0FF30EAE700BF90
:1054100064060020D4B80408044942F6A40200201F
:105420008B5C23F00F038B54704700BF6406002091
:105430002DE9F047DDE908A600284ED09046A2B33A
:10544000274C05460F46606A31469946FCF75CF9E1
:10545000002842D0A06AFCF727F988B939462846C7
:105460003246FFF7A7FF28B34FF0FF35A06AFCF7DD
:105470001BF938BB606AFCF753F92846BDE8F08792
:105480000021206AC4F81080C4E90257C4E9059AD3
:10549000FCF73AF9A06AFCF713F939462846324678
:1054A000FFF788FF0028DFD104E03246BDE8F0476F
:1054B000FFF780BF206A3146FCF726F90028D3D0D9
:1054C000E569D3E70023A06AC4E90233C4E90433E1
:1054D000C4E90633FCF7F4F8CCE74FF0FF35CCE72E
:1054E0006406002070B5831E012BA2B058D8032893
:1054F0000C464FF0400508BF8E682A464FF0000169
:1055000002A818BF002620F08EFD6368324A2946A3
:1055100012A821F00DFB12A8FAF7CCFF4FF47A7411
:1055200001460194009512A8324602ABFFF780FFB6
:10553000044630B1FCF762F801281DD9204622B09C
:1055400070BDFCF75BF80128F8D80120FCF75CF887
:105550000546FCF727F902AB0246CDE90043294690
:105560001E4B1F4821F0D2F91E4B1B68986820F093
:10557000F9FA204622B070BD0120FCF745F8054637
:10558000FCF710F929460246144B174821F0BEF9E2
:10559000144B1B68986820F0E5FA204622B070BDD5
:1055A000FCF72CF8012802D94FF0FF34C6E70120A0
:1055B000FCF72AF80446FCF7F5F821460246074BAB
:1055C0000A4821F0A3F9074B1B68986820F0CAFA33
:1055D0004FF0FF34B2E700BFD00F050820BA04082F
:1055E000DCB804081002002004B9040838B8040824
:1055F0000BB301B3F0B4074610480025044604E09D
:105600000135062D04F1140411D0266B002EF7D1BC
:10561000A66B002EF4D105EB850500EB8505C5E9E9
:105620000E122B63049BEF6230466B6301E04FF078
:10563000FF30F0BC70474FF0FF3070476406002029
:1056400030B5554C83B042F6AC020021204620F024
:10565000EAFC2046514B40F8243B01221146FCF75E
:1056600047F818B30022012104F12000FCF740F8AC
:1056700018B304F12800FCF70BF848B300250A23FF
:10568000CDE90053464947482A464FF40063FBF7EB
:10569000D3FF002862D042F6A4022846A35C23F080
:1056A0000F0343F00503A35403B030BDFBF7A6FF7F
:1056B000012818D94FF0FF30F6E7FBF79FFF0128CC
:1056C00026D93948FCF738F84FF0FF306062EBE735
:1056D000FBF794FF01282ED93448FCF72DF84FF042
:1056E000FF332362EDE70120FBF78EFF0446FCF752
:1056F00059F82F4B0093024621462E4821F006F917
:105700002D4B1B68986820F02DFA4FF0FF30CBE747
:105710000120FBF779FF0546FCF744F8244B009382
:1057200002462946234821F0F1F8234B1B6898686C
:1057300020F018FAC5E70120FBF766FF0546FCF7E5
:1057400031F81B4B0093024629461C4821F0DEF835
:10575000194B1B68986820F005FABDE7FBF74EFF70
:10576000012806D91648FBF7B7FF4FF0FF33A362B5
:10577000B2E70120FBF748FF0546FCF713F80C4B96
:105780000093024629460F4821F0C0F80A4B1B68D7
:10579000986820F0E7F9E5E76406002034B90408CA
:1057A000D552020884B90408880600208406002027
:1057B00018BA04083CB904081002002060B90408B3
:1057C0008C0600208CB9040870B4421EC11C002055
:1057D00012F8013FA3F13004E5B2092DA3F141060F
:1057E00004D8204491420AD00001F1E7052EA3F12C
:1057F0006104A3F1370504D891422844F4D170BC68
:105800007047052C02D8573B1844EBE70020F6E719
:10581000F0B170B40568E5B1D0E90163B34211D2CB
:10582000013B741EEA182C4402E0A242836009D0B6
:10583000134612F8011F02332029A3EB0503F4D904
:1058400070BC7047B342FBD1013B70BC83607047B2
:1058500070472846F4E700BF50B138B504460068E9
:1058600028B1A5682844FAF725FE2844A06038BD71
:10587000704700BF70B5044600B30668CEB14368F8
:10588000CBB900291ADBA268013111448B4218D22E
:1058900023699BB9B1F1804F16D2236A4D00D3B171
:1058A000304629469847064618B3A368C4E9006500
:1058B0001E44304670BD82689342E2D800263046CE
:1058C00070BD1644304670BD0029F7DB236A6FF0C7
:1058D0000045002BE4D1A36928469847064640B10D
:1058E000A2682168013220F076FBE36920689847BE
:1058F000DBE7E36920689847C4E90066D9E700BFA1
:10590000F8B5002834D00E46002933D084682ABB6D
:1059100014B3DFF864C0226ADAB1B2421CD0013A93
:10592000771E00E0C0B117F8010F1CF8003003F03B
:105930000303012B12F8013F1CF8035005F0030587
:105940000CBF00F120010146012D08BF2033994210
:10595000E8D02468002CDED12046F8BD002CFBD016
:10596000216A3046FAF79CFD0028F5D02468F5E757
:105970000446F1E70C46EFE7C12B05082DE9F04F8F
:1059800093681668F45C9046222C03F1010282466B
:1059900083B006EB020506EB03001AD1D8F80470B9
:1059A000BA4216D289462C46002203E00134A31BDA
:1059B000BB420ED22378222B15D05C2BF6D10134BA
:1059C000A31BBB4205D20134A31BBB4202F101025F
:1059D000F0D325B1D8F80000281AC8F80800002034
:1059E00003B0BDE8F08F231AC2F101001844D8F8C3
:1059F0001030984707460028EBD0A54280F09980E8
:105A0000DFF890B13A4605E002F8013B0135A542C6
:105A100080F090802B785C2BF6D1611B00291ADD79
:105A20006E78752E17D85B2E38D9A6F15C03192B2A
:105A300011D8DFE803F03710101010102D101010DF
:105A40002710101010101010211010101B10150D21
:105A5000052901922BDCD8F8143038469847B9E76D
:105A6000092302F8013B02231D44D0E70D2302F86D
:105A7000013B02231D44CAE70A2302F8013B02232B
:105A80001D44C4E70C2302F8013B02231D44BEE77A
:105A9000082302F8013B02231D44B8E7222E01D05F
:105AA0002F2ED8D1022302F8016B1D44AFE7A81CAA
:105AB000FFF78AFEA0F55C43B3F5806F0646CAD3B4
:105AC000A0F55843B3F5806F019A42D2AB1DE31A9B
:105AD000052BC0DDAB795C2BBDD1EB79752BBAD131
:105AE00005F10800FFF770FEA0F55C43B3F5806F89
:105AF000B1D20BEA8626C0F309003043019A00F5C3
:105B000080360C234FF0040E4FF0F00C03201044AD
:105B100006F03F0161F07F0100F8011990424FEA61
:105B20009616F5D14CEA0606F6B216701D4472447C
:105B30006DE73A4600231370D8F80030E31A0133BA
:105B40001022CAF800200120C9F80070C8F80830F7
:105B500046E77F2804D8C6B206234FF0010EE4E7DB
:105B6000B0F5006F06D206234FF0020E4FF0C00CC6
:105B70000120CCE7B0F5803F06D206234FF0030E9C
:105B80004FF0E00C0220C2E7B0F5881FBFF463AF0E
:105B90000623B7E700FC0F0083683BB11A461B6879
:105BA000002BFBD1116001204A6070478160012009
:105BB000704700BF10B5034628209847044618B127
:105BC0002822002120F02FFA204610BD002900F0E5
:105BD000BD802DE9F04706460846002E00F0908073
:105BE0003478002C00F098805B4D32464FF000096D
:105BF00001270FE0A4F10803DBB2072C07FA03F337
:105C000001D92B420AD11F2C98BF09F1050912F8BE
:105C1000014F4CB1222CEDD95C2CF8D112F8014F78
:105C200009F10109002CF5D1971B07EB0905E91CC7
:105C3000FFF720FE804600285BD0B9F1000F00F08E
:105C400087800446222304F8013B3378A3B3DFF8AE
:105C500010A15C274FF0740909E0222B09D05C2BBE
:105C600007D02370204616F8013F441C23B31F2B96
:105C7000F3D8204600F8017B3278222A3CD8072A44
:105C800032D9A2F108031A2B2ED8DFE803F02A2715
:105C9000242D211E2D2D2D2D2D2D2D2D2D2D2D2D58
:105CA0002D2D2D2D2D2D2D2D0E002223637016F858
:105CB000013F441C002BDAD108EB0504222200230B
:105CC0006270A3700120BDE8F08772236370CAE799
:105CD00066236370C7E76E236370C4E784F801909E
:105CE000C1E762236370BEE7514620F055FF601D97
:105CF000B9E70020BDE8F0875C2AF5D16270B2E711
:105D00000321FFF7B7FD0028F3D0144B1A889B78C6
:105D1000028083700120EDE70321FFF7ABFD804691
:105D20000028E6D0254602274FF0010940462224EC
:105D300000F8014B2A46314620F04DF9002308F8BF
:105D4000094008F807300120BDE8F08700207047BF
:105D500007F101090237E9E7370000043CBA0408FB
:105D600040BA04082DE9F043057B202D8DB006468E
:105D70000C4625DC75B36B1E1F2B2AD8DFE813F009
:105D800074008100290092002900290029009B004D
:105D90002900290029002900290029002900DC0008
:105DA00029002900290029002900290029002900AB
:105DB00029002900290029002900290029002E0096
:105DC000402D00F0E280802D03D10069002840F0D2
:105DD000BB80002528460DB0BDE8F0830029F8D02F
:105DE00001212046B768FFF745FD0028F1D05B236D
:105DF0000370D4E9022301320133C4E90223002FE6
:105E000000F0B3802C264FF02008002508E0013078
:105E10000570A3683F684B44A360002F00F0A58085
:105E200021463846FFF79EFF03462046002BD0D080
:105E3000FFF712FD3B682046002B00F09680636957
:105E4000002B15BF032102214FF002094FF0010979
:105E5000FFF710FD0028BCD006706369002BD6D078
